{
  "contractName": "Ehr",
  "abi": [
    {
      "anonymous": false,
      "inputs": [
        {
          "indexed": false,
          "name": "identity",
          "type": "address"
        },
        {
          "indexed": false,
          "name": "category",
          "type": "string"
        }
      ],
      "name": "RegisterParticipant",
      "type": "event"
    },
    {
      "anonymous": false,
      "inputs": [
        {
          "indexed": false,
          "name": "from",
          "type": "address"
        },
        {
          "indexed": false,
          "name": "to",
          "type": "address"
        },
        {
          "indexed": false,
          "name": "amount",
          "type": "uint256"
        }
      ],
      "name": "PaymentRequested",
      "type": "event"
    },
    {
      "constant": false,
      "inputs": [
        {
          "name": "who",
          "type": "string"
        }
      ],
      "name": "userRegister",
      "outputs": [],
      "payable": false,
      "stateMutability": "nonpayable",
      "type": "function"
    },
    {
      "constant": false,
      "inputs": [
        {
          "name": "doctor",
          "type": "address"
        }
      ],
      "name": "grantAccess",
      "outputs": [],
      "payable": false,
      "stateMutability": "nonpayable",
      "type": "function"
    },
    {
      "constant": false,
      "inputs": [
        {
          "name": "user",
          "type": "address"
        }
      ],
      "name": "revokeAccess",
      "outputs": [],
      "payable": false,
      "stateMutability": "nonpayable",
      "type": "function"
    },
    {
      "constant": false,
      "inputs": [
        {
          "name": "receiver",
          "type": "address"
        },
        {
          "name": "amount",
          "type": "uint256"
        }
      ],
      "name": "sendPayment",
      "outputs": [],
      "payable": false,
      "stateMutability": "nonpayable",
      "type": "function"
    },
    {
      "constant": false,
      "inputs": [
        {
          "name": "from",
          "type": "address"
        },
        {
          "name": "amount",
          "type": "uint256"
        }
      ],
      "name": "requestPayment",
      "outputs": [],
      "payable": false,
      "stateMutability": "nonpayable",
      "type": "function"
    },
    {
      "constant": true,
      "inputs": [],
      "name": "getBalance",
      "outputs": [
        {
          "name": "",
          "type": "uint256"
        }
      ],
      "payable": false,
      "stateMutability": "view",
      "type": "function"
    },
    {
      "constant": true,
      "inputs": [
        {
          "name": "patient",
          "type": "address"
        },
        {
          "name": "doctor",
          "type": "address"
        }
      ],
      "name": "verifyPriviledge",
      "outputs": [
        {
          "name": "",
          "type": "bool"
        }
      ],
      "payable": false,
      "stateMutability": "view",
      "type": "function"
    },
    {
      "constant": true,
      "inputs": [
        {
          "name": "x",
          "type": "address"
        }
      ],
      "name": "didIGaveRights",
      "outputs": [
        {
          "name": "",
          "type": "uint256"
        }
      ],
      "payable": false,
      "stateMutability": "view",
      "type": "function"
    }
  ],
  "bytecode": "0x6060604052341561000f57600080fd5b610c058061001e6000396000f30060606040526004361061008e576000357c0100000000000000000000000000000000000000000000000000000000900463ffffffff1680630ae5e7391461009357806312065fe0146100cc57806369243948146100f557806385e6853114610165578063881d97dc1461019e578063935f4c18146101fb5780639f0c592e1461023d578063e3dc60771461027f575b600080fd5b341561009e57600080fd5b6100ca600480803573ffffffffffffffffffffffffffffffffffffffff169060200190919050506102cc565b005b34156100d757600080fd5b6100df6103d7565b6040518082815260200191505060405180910390f35b341561010057600080fd5b61014b600480803573ffffffffffffffffffffffffffffffffffffffff1690602001909190803573ffffffffffffffffffffffffffffffffffffffff16906020019091905050610421565b604051808215151515815260200191505060405180910390f35b341561017057600080fd5b61019c600480803573ffffffffffffffffffffffffffffffffffffffff169060200190919050506104be565b005b34156101a957600080fd5b6101f9600480803590602001908201803590602001908080601f016020809104026020016040519081016040528093929190818152602001838380828437820191505050505050919050506105cb565b005b341561020657600080fd5b61023b600480803573ffffffffffffffffffffffffffffffffffffffff16906020019091908035906020019091905050610913565b005b341561024857600080fd5b61027d600480803573ffffffffffffffffffffffffffffffffffffffff16906020019091908035906020019091905050610a08565b005b341561028a57600080fd5b6102b6600480803573ffffffffffffffffffffffffffffffffffffffff16906020019091905050610aab565b6040518082815260200191505060405180910390f35b60018060003373ffffffffffffffffffffffffffffffffffffffff1673ffffffffffffffffffffffffffffffffffffffff16815260200190815260200160002060020160008373ffffffffffffffffffffffffffffffffffffffff1673ffffffffffffffffffffffffffffffffffffffff1681526020019081526020016000208190555060018060008373ffffffffffffffffffffffffffffffffffffffff1673ffffffffffffffffffffffffffffffffffffffff16815260200190815260200160002060030160003373ffffffffffffffffffffffffffffffffffffffff1673ffffffffffffffffffffffffffffffffffffffff1681526020019081526020016000208190555050565b6000600160003373ffffffffffffffffffffffffffffffffffffffff1673ffffffffffffffffffffffffffffffffffffffff16815260200190815260200160002060010154905090565b600060018060008573ffffffffffffffffffffffffffffffffffffffff1673ffffffffffffffffffffffffffffffffffffffff16815260200190815260200160002060020160008473ffffffffffffffffffffffffffffffffffffffff1673ffffffffffffffffffffffffffffffffffffffff1681526020019081526020016000205414156104b357600190506104b8565b600090505b92915050565b6002600160003373ffffffffffffffffffffffffffffffffffffffff1673ffffffffffffffffffffffffffffffffffffffff16815260200190815260200160002060020160008373ffffffffffffffffffffffffffffffffffffffff1673ffffffffffffffffffffffffffffffffffffffff168152602001908152602001600020819055506002600160008373ffffffffffffffffffffffffffffffffffffffff1673ffffffffffffffffffffffffffffffffffffffff16815260200190815260200160002060030160003373ffffffffffffffffffffffffffffffffffffffff1673ffffffffffffffffffffffffffffffffffffffff1681526020019081526020016000208190555050565b336000806101000a81548173ffffffffffffffffffffffffffffffffffffffff021916908373ffffffffffffffffffffffffffffffffffffffff16021790555080600160003373ffffffffffffffffffffffffffffffffffffffff1673ffffffffffffffffffffffffffffffffffffffff1681526020019081526020016000206000019080519060200190610661929190610b34565b50600f600160003373ffffffffffffffffffffffffffffffffffffffff1673ffffffffffffffffffffffffffffffffffffffff168152602001908152602001600020600101819055507f58d9cb1ff5fb26f32bb971a699089827f0e10c6c25680ff9368591b4866803e43382604051808373ffffffffffffffffffffffffffffffffffffffff1673ffffffffffffffffffffffffffffffffffffffff16815260200180602001828103825283818151815260200191508051906020019080838360005b8381101561073f578082015181840152602081019050610724565b50505050905090810190601f16801561076c5780820380516001836020036101000a031916815260200191505b50935050505060405180910390a16000600160003373ffffffffffffffffffffffffffffffffffffffff1673ffffffffffffffffffffffffffffffffffffffff16815260200190815260200160002060020160003373ffffffffffffffffffffffffffffffffffffffff1673ffffffffffffffffffffffffffffffffffffffff1681526020019081526020016000205414151561080857600080fd5b60018060003373ffffffffffffffffffffffffffffffffffffffff1673ffffffffffffffffffffffffffffffffffffffff16815260200190815260200160002060020160003373ffffffffffffffffffffffffffffffffffffffff1673ffffffffffffffffffffffffffffffffffffffff1681526020019081526020016000208190555060018060003373ffffffffffffffffffffffffffffffffffffffff1673ffffffffffffffffffffffffffffffffffffffff16815260200190815260200160002060030160003373ffffffffffffffffffffffffffffffffffffffff1673ffffffffffffffffffffffffffffffffffffffff1681526020019081526020016000208190555050565b80600160003373ffffffffffffffffffffffffffffffffffffffff1673ffffffffffffffffffffffffffffffffffffffff168152602001908152602001600020600101541015151561096457600080fd5b80600160003373ffffffffffffffffffffffffffffffffffffffff1673ffffffffffffffffffffffffffffffffffffffff1681526020019081526020016000206001016000828254039250508190555080600160008473ffffffffffffffffffffffffffffffffffffffff1673ffffffffffffffffffffffffffffffffffffffff168152602001908152602001600020600101600082825401925050819055505050565b7f6169fa0be494904210ce51719ced30fd71555c2cda66e3c51584bfc967e1e161823383604051808473ffffffffffffffffffffffffffffffffffffffff1673ffffffffffffffffffffffffffffffffffffffff1681526020018373ffffffffffffffffffffffffffffffffffffffff1673ffffffffffffffffffffffffffffffffffffffff168152602001828152602001935050505060405180910390a15050565b6000600160003373ffffffffffffffffffffffffffffffffffffffff1673ffffffffffffffffffffffffffffffffffffffff16815260200190815260200160002060020160008373ffffffffffffffffffffffffffffffffffffffff1673ffffffffffffffffffffffffffffffffffffffff168152602001908152602001600020549050919050565b828054600181600116156101000203166002900490600052602060002090601f016020900481019282601f10610b7557805160ff1916838001178555610ba3565b82800160010185558215610ba3579182015b82811115610ba2578251825591602001919060010190610b87565b5b509050610bb09190610bb4565b5090565b610bd691905b80821115610bd2576000816000905550600101610bba565b5090565b905600a165627a7a72305820d7355b69120819080b48e246c153e3bad66737142c2acf072ae159d554153c720029",
  "source": "pragma solidity ^0.4.17;\n\ncontract Ehr {\n    \n    address deployerAdmin;\n    struct someone {\n        string identf;\n        uint balance;\n        mapping (address => uint) gaveRightsTo;\n        mapping (address => uint) hasRightsTo;\n    }\n    \n    mapping (address => someone) private everyone;\n    \n    event RegisterParticipant(address identity, string category);\n    event PaymentRequested(address from, address to, uint amount);\n    \n    function userRegister(string who) public{\n        deployerAdmin = msg.sender;\n        everyone[msg.sender].identf = who;\n        everyone[msg.sender].balance = 15;\n        RegisterParticipant(msg.sender, who);\n        \n        require(everyone[msg.sender].gaveRightsTo[msg.sender] == 0);\n        everyone[msg.sender].gaveRightsTo[msg.sender] = 1;\n        everyone[msg.sender].hasRightsTo[msg.sender] = 1;\n    }\n    \n    function grantAccess(address doctor) public {\n        everyone[msg.sender].gaveRightsTo[doctor]=1;\n        everyone[doctor].hasRightsTo[msg.sender]=1;\n    }\n    \n    function revokeAccess(address user) public{\n        everyone[msg.sender].gaveRightsTo[user]=2;\n        everyone[user].hasRightsTo[msg.sender]=2;\n    }\n    \n    // function getPrivileged() public view returns(){\n    //     return everyone[msg.sender].gaveRightsTo[msg.sender];\n    // }\n    \n    function sendPayment(address receiver, uint amount) public {\n        require(everyone[msg.sender].balance >=amount);\n        everyone[msg.sender].balance -= amount;\n        everyone[receiver].balance += amount;\n    }\n    \n    function requestPayment(address from, uint amount) public {\n        PaymentRequested(from, msg.sender, amount);\n    }\n    \n    function getBalance() public view returns(uint){\n        return everyone[msg.sender].balance;\n    }\n    \n    function verifyPriviledge(address patient, address doctor) public view returns(bool) {\n        // require(msg.sender == deployerAdmin);\n        if(everyone[patient].gaveRightsTo[doctor] == 1){\n            return true;\n        }\n        else {\n            return false;\n        }\n    }\n    \n    function didIGaveRights(address x) public view returns(uint){\n        return everyone[msg.sender].gaveRightsTo[x];\n        \n    }\n}\n",
  "sourcePath": "/home/ftalem/Udemy-Vue/applications/ehr-network-ETH/contracts/Ehr.sol",
  "compiler": {
    "name": "solc",
    "version": "0.4.19+commit.c4cbbb05.Emscripten.clang"
  },
  "schemaVersion": "2.0.0",
  "updatedAt": "2018-04-02T11:57:55.003Z"
}